{
  "contractName": "Hello_Ganache",
  "abi": [
    {
      "inputs": [
        {
          "internalType": "int256",
          "name": "_age",
          "type": "int256"
        },
        {
          "internalType": "string",
          "name": "_name",
          "type": "string"
        },
        {
          "internalType": "bool",
          "name": "_isStudent",
          "type": "bool"
        }
      ],
      "name": "setUserInfo",
      "outputs": [],
      "stateMutability": "nonpayable",
      "type": "function"
    },
    {
      "inputs": [],
      "name": "getUserInfo",
      "outputs": [
        {
          "internalType": "int256",
          "name": "",
          "type": "int256"
        },
        {
          "internalType": "string",
          "name": "",
          "type": "string"
        },
        {
          "internalType": "bool",
          "name": "",
          "type": "bool"
        }
      ],
      "stateMutability": "view",
      "type": "function",
      "constant": true
    }
  ],
  "bytecode": "0x608060405234801561001057600080fd5b506106f4806100206000396000f3fe608060405234801561001057600080fd5b50600436106100365760003560e01c8063152e9bb71461003b5780635d8d158514610057575b600080fd5b6100556004803603810190610050919061023e565b610077565b005b61005f6100b0565b60405161006e93929190610360565b60405180910390f35b8360008190555082826001918261008f9291906105ee565b5080600260006101000a81548160ff02191690831515021790555050505050565b60006060600080546001600260009054906101000a900460ff168180546100d690610407565b80601f016020809104026020016040519081016040528092919081815260200182805461010290610407565b801561014f5780601f106101245761010080835404028352916020019161014f565b820191906000526020600020905b81548152906001019060200180831161013257829003601f168201915b50505050509150925092509250909192565b600080fd5b600080fd5b6000819050919050565b61017e8161016b565b811461018957600080fd5b50565b60008135905061019b81610175565b92915050565b600080fd5b600080fd5b600080fd5b60008083601f8401126101c6576101c56101a1565b5b8235905067ffffffffffffffff8111156101e3576101e26101a6565b5b6020830191508360018202830111156101ff576101fe6101ab565b5b9250929050565b60008115159050919050565b61021b81610206565b811461022657600080fd5b50565b60008135905061023881610212565b92915050565b6000806000806060858703121561025857610257610161565b5b60006102668782880161018c565b945050602085013567ffffffffffffffff81111561028757610286610166565b5b610293878288016101b0565b935093505060406102a687828801610229565b91505092959194509250565b6102bb8161016b565b82525050565b600081519050919050565b600082825260208201905092915050565b60005b838110156102fb5780820151818401526020810190506102e0565b60008484015250505050565b6000601f19601f8301169050919050565b6000610323826102c1565b61032d81856102cc565b935061033d8185602086016102dd565b61034681610307565b840191505092915050565b61035a81610206565b82525050565b600060608201905061037560008301866102b2565b81810360208301526103878185610318565b90506103966040830184610351565b949350505050565b600082905092915050565b7f4e487b7100000000000000000000000000000000000000000000000000000000600052604160045260246000fd5b7f4e487b7100000000000000000000000000000000000000000000000000000000600052602260045260246000fd5b6000600282049050600182168061041f57607f821691505b602082108103610432576104316103d8565b5b50919050565b60008190508160005260206000209050919050565b60006020601f8301049050919050565b600082821b905092915050565b60006008830261049a7fffffffffffffffffffffffffffffffffffffffffffffffffffffffffffffffff8261045d565b6104a4868361045d565b95508019841693508086168417925050509392505050565b6000819050919050565b6000819050919050565b60006104eb6104e66104e1846104bc565b6104c6565b6104bc565b9050919050565b6000819050919050565b610505836104d0565b610519610511826104f2565b84845461046a565b825550505050565b600090565b61052e610521565b6105398184846104fc565b505050565b5b8181101561055d57610552600082610526565b60018101905061053f565b5050565b601f8211156105a25761057381610438565b61057c8461044d565b8101602085101561058b578190505b61059f6105978561044d565b83018261053e565b50505b505050565b600082821c905092915050565b60006105c5600019846008026105a7565b1980831691505092915050565b60006105de83836105b4565b9150826002028217905092915050565b6105f8838361039e565b67ffffffffffffffff811115610611576106106103a9565b5b61061b8254610407565b610626828285610561565b6000601f8311600181146106555760008415610643578287013590505b61064d85826105d2565b8655506106b5565b601f19841661066386610438565b60005b8281101561068b57848901358255600182019150602085019450602081019050610666565b868310156106a857848901356106a4601f8916826105b4565b8355505b6001600288020188555050505b5050505050505056fea264697066735822122048141b6f2dc0930c9b41020b3fe246e5473796a6dc180a4d79ae9d02edc0e41164736f6c63430008110033",
  "immutableReferences": {},
  "source": "// SPDX-License-Identifier: MIT\n\npragma solidity >=0.0.22 <0.9.0;\n\ncontract Hello_Ganache {\n    int256 private age;\n    string private name;\n    bool private isStudent;\n    address private owner;\n\n    function setUserInfo(\n        int256 _age,\n        string calldata _name,\n        bool _isStudent\n    ) public {\n        age = _age;\n        name = _name;\n        isStudent = _isStudent;\n    }\n\n    function getUserInfo()\n        public\n        view\n        returns (\n            int256,\n            string memory,\n            bool\n        )\n    {\n        return (age, name, isStudent);\n    }\n}\n",
  "sourcePath": "/home/sadam/ganache-test/contracts/hello_ganache.sol",
  "compiler": {
    "name": "solc",
    "version": "0.8.17+commit.8df45f5f.Emscripten.clang"
  },
  "schemaVersion": "3.4.11",
  "updatedAt": "2023-01-20T19:56:25.535Z",
  "networkType": "ethereum",
  "devdoc": {
    "kind": "dev",
    "methods": {},
    "version": 1
  },
  "userdoc": {
    "kind": "user",
    "methods": {},
    "version": 1
  }
}