{
  "contractName": "Hello_Ganache",
  "abi": [
    {
      "inputs": [
        {
          "internalType": "int256",
          "name": "_age",
          "type": "int256"
        },
        {
          "internalType": "string",
          "name": "_name",
          "type": "string"
        },
        {
          "internalType": "bool",
          "name": "_isStudent",
          "type": "bool"
        },
        {
          "internalType": "address",
          "name": "_owner",
          "type": "address"
        }
      ],
      "name": "setUserInfo",
      "outputs": [],
      "stateMutability": "nonpayable",
      "type": "function"
    },
    {
      "inputs": [],
      "name": "getUserInfo",
      "outputs": [
        {
          "internalType": "int256",
          "name": "",
          "type": "int256"
        },
        {
          "internalType": "string",
          "name": "",
          "type": "string"
        },
        {
          "internalType": "bool",
          "name": "",
          "type": "bool"
        },
        {
          "internalType": "address",
          "name": "",
          "type": "address"
        }
      ],
      "stateMutability": "view",
      "type": "function",
      "constant": true
    }
  ],
  "bytecode": "0x608060405234801561001057600080fd5b506107ee806100206000396000f3fe608060405234801561001057600080fd5b50600436106100365760003560e01c80634829ee721461003b5780635d8d158514610057575b600080fd5b61005560048036038101906100509190610307565b610078565b005b61005f6100f3565b60405161006f949392919061044c565b60405180910390f35b846000819055508383600191826100909291906106e8565b5081600260006101000a81548160ff02191690831515021790555080600260016101000a81548173ffffffffffffffffffffffffffffffffffffffff021916908373ffffffffffffffffffffffffffffffffffffffff1602179055505050505050565b600060606000806000546001600260009054906101000a900460ff16600260019054906101000a900473ffffffffffffffffffffffffffffffffffffffff1682805461013e90610501565b80601f016020809104026020016040519081016040528092919081815260200182805461016a90610501565b80156101b75780601f1061018c576101008083540402835291602001916101b7565b820191906000526020600020905b81548152906001019060200180831161019a57829003601f168201915b50505050509250935093509350935090919293565b600080fd5b600080fd5b6000819050919050565b6101e9816101d6565b81146101f457600080fd5b50565b600081359050610206816101e0565b92915050565b600080fd5b600080fd5b600080fd5b60008083601f8401126102315761023061020c565b5b8235905067ffffffffffffffff81111561024e5761024d610211565b5b60208301915083600182028301111561026a57610269610216565b5b9250929050565b60008115159050919050565b61028681610271565b811461029157600080fd5b50565b6000813590506102a38161027d565b92915050565b600073ffffffffffffffffffffffffffffffffffffffff82169050919050565b60006102d4826102a9565b9050919050565b6102e4816102c9565b81146102ef57600080fd5b50565b600081359050610301816102db565b92915050565b600080600080600060808688031215610323576103226101cc565b5b6000610331888289016101f7565b955050602086013567ffffffffffffffff811115610352576103516101d1565b5b61035e8882890161021b565b9450945050604061037188828901610294565b9250506060610382888289016102f2565b9150509295509295909350565b610398816101d6565b82525050565b600081519050919050565b600082825260208201905092915050565b60005b838110156103d85780820151818401526020810190506103bd565b60008484015250505050565b6000601f19601f8301169050919050565b60006104008261039e565b61040a81856103a9565b935061041a8185602086016103ba565b610423816103e4565b840191505092915050565b61043781610271565b82525050565b610446816102c9565b82525050565b6000608082019050610461600083018761038f565b818103602083015261047381866103f5565b9050610482604083018561042e565b61048f606083018461043d565b95945050505050565b600082905092915050565b7f4e487b7100000000000000000000000000000000000000000000000000000000600052604160045260246000fd5b7f4e487b7100000000000000000000000000000000000000000000000000000000600052602260045260246000fd5b6000600282049050600182168061051957607f821691505b60208210810361052c5761052b6104d2565b5b50919050565b60008190508160005260206000209050919050565b60006020601f8301049050919050565b600082821b905092915050565b6000600883026105947fffffffffffffffffffffffffffffffffffffffffffffffffffffffffffffffff82610557565b61059e8683610557565b95508019841693508086168417925050509392505050565b6000819050919050565b6000819050919050565b60006105e56105e06105db846105b6565b6105c0565b6105b6565b9050919050565b6000819050919050565b6105ff836105ca565b61061361060b826105ec565b848454610564565b825550505050565b600090565b61062861061b565b6106338184846105f6565b505050565b5b818110156106575761064c600082610620565b600181019050610639565b5050565b601f82111561069c5761066d81610532565b61067684610547565b81016020851015610685578190505b61069961069185610547565b830182610638565b50505b505050565b600082821c905092915050565b60006106bf600019846008026106a1565b1980831691505092915050565b60006106d883836106ae565b9150826002028217905092915050565b6106f28383610498565b67ffffffffffffffff81111561070b5761070a6104a3565b5b6107158254610501565b61072082828561065b565b6000601f83116001811461074f576000841561073d578287013590505b61074785826106cc565b8655506107af565b601f19841661075d86610532565b60005b8281101561078557848901358255600182019150602085019450602081019050610760565b868310156107a2578489013561079e601f8916826106ae565b8355505b6001600288020188555050505b5050505050505056fea2646970667358221220d11fd84a8690df37e18a36ba18cfd471b2da8646db3e34f5586d32656a6f1b3b64736f6c63430008110033",
  "immutableReferences": {},
  "source": "// SPDX-License-Identifier: MIT\n\npragma solidity >=0.0.22 <0.9.0;\n\ncontract Hello_Ganache {\n    int256 private age;\n    string private name;\n    bool private isStudent;\n    address private owner;\n\n    function setUserInfo(\n        int256 _age,\n        string calldata _name,\n        bool _isStudent,\n        address _owner\n    ) public {\n        age = _age;\n        name = _name;\n        isStudent = _isStudent;\n        owner = _owner;\n    }\n\n    function getUserInfo()\n        public view\n        returns (\n            int256,\n            string memory,\n            bool,\n            address\n        )\n    {\n        return (age, name, isStudent, owner);\n    }\n}\n",
  "sourcePath": "/home/sadam/ganache-test/contracts/hello_ganache.sol",
  "compiler": {
    "name": "solc",
    "version": "0.8.17+commit.8df45f5f.Emscripten.clang"
  },
  "schemaVersion": "3.4.11",
  "updatedAt": "2023-01-20T10:05:54.964Z",
  "networkType": "ethereum",
  "devdoc": {
    "kind": "dev",
    "methods": {},
    "version": 1
  },
  "userdoc": {
    "kind": "user",
    "methods": {},
    "version": 1
  }
}