{
  "contractName": "Hello_Ganache",
  "abi": [
    {
      "inputs": [
        {
          "internalType": "int256",
          "name": "_age",
          "type": "int256"
        },
        {
          "internalType": "string",
          "name": "_name",
          "type": "string"
        },
        {
          "internalType": "bool",
          "name": "_isStudent",
          "type": "bool"
        },
        {
          "internalType": "address",
          "name": "_owner",
          "type": "address"
        }
      ],
      "name": "setUserInfo",
      "outputs": [],
      "stateMutability": "nonpayable",
      "type": "function"
    }
  ],
  "bytecode": "0x608060405234801561001057600080fd5b506105e0806100206000396000f3fe608060405234801561001057600080fd5b506004361061002b5760003560e01c80634829ee7214610030575b600080fd5b61004a60048036038101906100459190610202565b61004c565b005b846000819055508383600191826100649291906104da565b5081600260006101000a81548160ff02191690831515021790555080600260016101000a81548173ffffffffffffffffffffffffffffffffffffffff021916908373ffffffffffffffffffffffffffffffffffffffff1602179055505050505050565b600080fd5b600080fd5b6000819050919050565b6100e4816100d1565b81146100ef57600080fd5b50565b600081359050610101816100db565b92915050565b600080fd5b600080fd5b600080fd5b60008083601f84011261012c5761012b610107565b5b8235905067ffffffffffffffff8111156101495761014861010c565b5b60208301915083600182028301111561016557610164610111565b5b9250929050565b60008115159050919050565b6101818161016c565b811461018c57600080fd5b50565b60008135905061019e81610178565b92915050565b600073ffffffffffffffffffffffffffffffffffffffff82169050919050565b60006101cf826101a4565b9050919050565b6101df816101c4565b81146101ea57600080fd5b50565b6000813590506101fc816101d6565b92915050565b60008060008060006080868803121561021e5761021d6100c7565b5b600061022c888289016100f2565b955050602086013567ffffffffffffffff81111561024d5761024c6100cc565b5b61025988828901610116565b9450945050604061026c8882890161018f565b925050606061027d888289016101ed565b9150509295509295909350565b600082905092915050565b7f4e487b7100000000000000000000000000000000000000000000000000000000600052604160045260246000fd5b7f4e487b7100000000000000000000000000000000000000000000000000000000600052602260045260246000fd5b6000600282049050600182168061030b57607f821691505b60208210810361031e5761031d6102c4565b5b50919050565b60008190508160005260206000209050919050565b60006020601f8301049050919050565b600082821b905092915050565b6000600883026103867fffffffffffffffffffffffffffffffffffffffffffffffffffffffffffffffff82610349565b6103908683610349565b95508019841693508086168417925050509392505050565b6000819050919050565b6000819050919050565b60006103d76103d26103cd846103a8565b6103b2565b6103a8565b9050919050565b6000819050919050565b6103f1836103bc565b6104056103fd826103de565b848454610356565b825550505050565b600090565b61041a61040d565b6104258184846103e8565b505050565b5b818110156104495761043e600082610412565b60018101905061042b565b5050565b601f82111561048e5761045f81610324565b61046884610339565b81016020851015610477578190505b61048b61048385610339565b83018261042a565b50505b505050565b600082821c905092915050565b60006104b160001984600802610493565b1980831691505092915050565b60006104ca83836104a0565b9150826002028217905092915050565b6104e4838361028a565b67ffffffffffffffff8111156104fd576104fc610295565b5b61050782546102f3565b61051282828561044d565b6000601f831160018114610541576000841561052f578287013590505b61053985826104be565b8655506105a1565b601f19841661054f86610324565b60005b8281101561057757848901358255600182019150602085019450602081019050610552565b868310156105945784890135610590601f8916826104a0565b8355505b6001600288020188555050505b5050505050505056fea26469706673582212203f3bb0c8590759850751157035ad0e80d3bc37ddae4d8e6190144f50ec956c9d64736f6c63430008110033",
  "immutableReferences": {},
  "source": "// SPDX-License-Identifier: MIT\n\npragma solidity >=0.0.22 <0.9.0;\n\ncontract Hello_Ganache {\n    int256 private age;\n    string private name;\n    bool private isStudent;\n    address private owner;\n\n    function setUserInfo(\n        int256 _age,\n        string calldata _name,\n        bool _isStudent,\n        address _owner\n    ) public {\n        age = _age;\n        name = _name;\n        isStudent = _isStudent;\n        owner = _owner;\n    }\n}\n",
  "sourcePath": "/home/sadam/ganache-test/contracts/hello_ganache.sol",
  "compiler": {
    "name": "solc",
    "version": "0.8.17+commit.8df45f5f.Emscripten.clang"
  },
  "schemaVersion": "3.4.11",
  "updatedAt": "2023-01-20T09:47:47.806Z",
  "devdoc": {
    "kind": "dev",
    "methods": {},
    "version": 1
  },
  "userdoc": {
    "kind": "user",
    "methods": {},
    "version": 1
  }
}